{
  "address": "0x5CA0D468697a859B6Cb282d038A51D06CeF85a66",
  "abi": [
    {
      "inputs": [
        {
          "internalType": "address",
          "name": "_tokenAddress",
          "type": "address"
        }
      ],
      "stateMutability": "nonpayable",
      "type": "constructor"
    },
    {
      "inputs": [
        {
          "internalType": "address",
          "name": "owner",
          "type": "address"
        }
      ],
      "name": "OwnableInvalidOwner",
      "type": "error"
    },
    {
      "inputs": [
        {
          "internalType": "address",
          "name": "account",
          "type": "address"
        }
      ],
      "name": "OwnableUnauthorizedAccount",
      "type": "error"
    },
    {
      "anonymous": false,
      "inputs": [
        {
          "indexed": true,
          "internalType": "address",
          "name": "previousOwner",
          "type": "address"
        },
        {
          "indexed": true,
          "internalType": "address",
          "name": "newOwner",
          "type": "address"
        }
      ],
      "name": "OwnershipTransferred",
      "type": "event"
    },
    {
      "anonymous": false,
      "inputs": [
        {
          "indexed": true,
          "internalType": "address",
          "name": "creator",
          "type": "address"
        },
        {
          "indexed": true,
          "internalType": "address",
          "name": "beneficiary",
          "type": "address"
        },
        {
          "indexed": false,
          "internalType": "address",
          "name": "vesting",
          "type": "address"
        },
        {
          "indexed": false,
          "internalType": "uint256",
          "name": "amount",
          "type": "uint256"
        },
        {
          "indexed": false,
          "internalType": "uint256",
          "name": "duration",
          "type": "uint256"
        }
      ],
      "name": "VestingCreated",
      "type": "event"
    },
    {
      "inputs": [
        {
          "internalType": "uint256",
          "name": "",
          "type": "uint256"
        }
      ],
      "name": "allUsers",
      "outputs": [
        {
          "internalType": "address",
          "name": "",
          "type": "address"
        }
      ],
      "stateMutability": "view",
      "type": "function"
    },
    {
      "inputs": [
        {
          "internalType": "uint256",
          "name": "",
          "type": "uint256"
        }
      ],
      "name": "allVestings",
      "outputs": [
        {
          "internalType": "contract Vesting",
          "name": "",
          "type": "address"
        }
      ],
      "stateMutability": "view",
      "type": "function"
    },
    {
      "inputs": [
        {
          "internalType": "address",
          "name": "_beneficiary",
          "type": "address"
        },
        {
          "internalType": "uint256",
          "name": "_totalAmount",
          "type": "uint256"
        },
        {
          "internalType": "uint256",
          "name": "_duration",
          "type": "uint256"
        }
      ],
      "name": "createVesting",
      "outputs": [],
      "stateMutability": "nonpayable",
      "type": "function"
    },
    {
      "inputs": [],
      "name": "getAllUsers",
      "outputs": [
        {
          "internalType": "address[]",
          "name": "",
          "type": "address[]"
        }
      ],
      "stateMutability": "view",
      "type": "function"
    },
    {
      "inputs": [],
      "name": "getAllVestingAddresses",
      "outputs": [
        {
          "internalType": "address[]",
          "name": "",
          "type": "address[]"
        }
      ],
      "stateMutability": "view",
      "type": "function"
    },
    {
      "inputs": [],
      "name": "getAllVestingsLength",
      "outputs": [
        {
          "internalType": "uint256",
          "name": "",
          "type": "uint256"
        }
      ],
      "stateMutability": "view",
      "type": "function"
    },
    {
      "inputs": [
        {
          "internalType": "address",
          "name": "user",
          "type": "address"
        }
      ],
      "name": "getVestingAddressesOf",
      "outputs": [
        {
          "internalType": "address[]",
          "name": "",
          "type": "address[]"
        }
      ],
      "stateMutability": "view",
      "type": "function"
    },
    {
      "inputs": [
        {
          "internalType": "address",
          "name": "user",
          "type": "address"
        }
      ],
      "name": "getVestingsOfLength",
      "outputs": [
        {
          "internalType": "uint256",
          "name": "",
          "type": "uint256"
        }
      ],
      "stateMutability": "view",
      "type": "function"
    },
    {
      "inputs": [],
      "name": "owner",
      "outputs": [
        {
          "internalType": "address",
          "name": "",
          "type": "address"
        }
      ],
      "stateMutability": "view",
      "type": "function"
    },
    {
      "inputs": [],
      "name": "renounceOwnership",
      "outputs": [],
      "stateMutability": "nonpayable",
      "type": "function"
    },
    {
      "inputs": [],
      "name": "token",
      "outputs": [
        {
          "internalType": "contract IERC20",
          "name": "",
          "type": "address"
        }
      ],
      "stateMutability": "view",
      "type": "function"
    },
    {
      "inputs": [
        {
          "internalType": "address",
          "name": "newOwner",
          "type": "address"
        }
      ],
      "name": "transferOwnership",
      "outputs": [],
      "stateMutability": "nonpayable",
      "type": "function"
    },
    {
      "inputs": [
        {
          "internalType": "address",
          "name": "",
          "type": "address"
        },
        {
          "internalType": "uint256",
          "name": "",
          "type": "uint256"
        }
      ],
      "name": "vestingsOf",
      "outputs": [
        {
          "internalType": "contract Vesting",
          "name": "",
          "type": "address"
        }
      ],
      "stateMutability": "view",
      "type": "function"
    }
  ],
  "transactionHash": "0xa4758a93586b739d8993980bb786f42b2fb1ba5c2a5c863666f9b1b038da41c0",
  "args": [
    "0x66c4Ebc1612D5d9a2D7F3a62Da435488b79b0885"
  ],
  "numDeployments": 2,
  "solcInputHash": "11497311eac497223fd3342292824e8b",
  "bytecode": "0x608060405234801561001057600080fd5b50604051611ea5380380611ea583398181016040528101906100329190610223565b33600073ffffffffffffffffffffffffffffffffffffffff168173ffffffffffffffffffffffffffffffffffffffff16036100a55760006040517f1e4fbdf700000000000000000000000000000000000000000000000000000000815260040161009c919061025f565b60405180910390fd5b6100b4816100fc60201b60201c565b5080600160006101000a81548173ffffffffffffffffffffffffffffffffffffffff021916908373ffffffffffffffffffffffffffffffffffffffff1602179055505061027a565b60008060009054906101000a900473ffffffffffffffffffffffffffffffffffffffff169050816000806101000a81548173ffffffffffffffffffffffffffffffffffffffff021916908373ffffffffffffffffffffffffffffffffffffffff1602179055508173ffffffffffffffffffffffffffffffffffffffff168173ffffffffffffffffffffffffffffffffffffffff167f8be0079c531659141344cd1fd0a4f28419497f9722a3daafe3b4186f6b6457e060405160405180910390a35050565b600080fd5b600073ffffffffffffffffffffffffffffffffffffffff82169050919050565b60006101f0826101c5565b9050919050565b610200816101e5565b811461020b57600080fd5b50565b60008151905061021d816101f7565b92915050565b600060208284031215610239576102386101c0565b5b60006102478482850161020e565b91505092915050565b610259816101e5565b82525050565b60006020820190506102746000830184610250565b92915050565b611c1c806102896000396000f3fe608060405234801561001057600080fd5b50600436106100cf5760003560e01c8063bf5a13831161008c578063e2842d7911610066578063e2842d7914610228578063e975490814610246578063f2fde38b14610262578063fc0c546a1461027e576100cf565b8063bf5a138314610198578063dfb9366d146101c8578063e01ba446146101f8576100cf565b80632e2965b4146100d45780634988f08e146100f2578063715018a6146101105780638da5cb5b1461011a5780638f3e3e5b14610138578063a2bdedf414610168575b600080fd5b6100dc61029c565b6040516100e99190610b86565b60405180910390f35b6100fa6102a9565b6040516101079190610c91565b60405180910390f35b6101186103ae565b005b6101226103c2565b60405161012f9190610cc2565b60405180910390f35b610152600480360381019061014d9190610d0e565b6103eb565b60405161015f9190610c91565b60405180910390f35b610182600480360381019061017d9190610d67565b610533565b60405161018f9190610cc2565b60405180910390f35b6101b260048036038101906101ad9190610d67565b610572565b6040516101bf9190610df3565b60405180910390f35b6101e260048036038101906101dd9190610e0e565b6105b1565b6040516101ef9190610df3565b60405180910390f35b610212600480360381019061020d9190610d0e565b6105ff565b60405161021f9190610b86565b60405180910390f35b61023061064b565b60405161023d9190610c91565b60405180910390f35b610260600480360381019061025b9190610e4e565b6106d9565b005b61027c60048036038101906102779190610d0e565b610961565b005b6102866109e7565b6040516102939190610ec2565b60405180910390f35b6000600280549050905090565b6060600060028054905067ffffffffffffffff8111156102cc576102cb610edd565b5b6040519080825280602002602001820160405280156102fa5781602001602082028036833780820191505090505b50905060005b6002805490508110156103a6576002818154811061032157610320610f0c565b5b9060005260206000200160009054906101000a900473ffffffffffffffffffffffffffffffffffffffff1682828151811061035f5761035e610f0c565b5b602002602001019073ffffffffffffffffffffffffffffffffffffffff16908173ffffffffffffffffffffffffffffffffffffffff16815250508080600101915050610300565b508091505090565b6103b6610a0d565b6103c06000610a94565b565b60008060009054906101000a900473ffffffffffffffffffffffffffffffffffffffff16905090565b60606000600360008473ffffffffffffffffffffffffffffffffffffffff1673ffffffffffffffffffffffffffffffffffffffff16815260200190815260200160002090506000818054905067ffffffffffffffff8111156104505761044f610edd565b5b60405190808252806020026020018201604052801561047e5781602001602082028036833780820191505090505b50905060005b8280549050811015610528578281815481106104a3576104a2610f0c565b5b9060005260206000200160009054906101000a900473ffffffffffffffffffffffffffffffffffffffff168282815181106104e1576104e0610f0c565b5b602002602001019073ffffffffffffffffffffffffffffffffffffffff16908173ffffffffffffffffffffffffffffffffffffffff16815250508080600101915050610484565b508092505050919050565b6004818154811061054357600080fd5b906000526020600020016000915054906101000a900473ffffffffffffffffffffffffffffffffffffffff1681565b6002818154811061058257600080fd5b906000526020600020016000915054906101000a900473ffffffffffffffffffffffffffffffffffffffff1681565b600360205281600052604060002081815481106105cd57600080fd5b906000526020600020016000915091509054906101000a900473ffffffffffffffffffffffffffffffffffffffff1681565b6000600360008373ffffffffffffffffffffffffffffffffffffffff1673ffffffffffffffffffffffffffffffffffffffff168152602001908152602001600020805490509050919050565b606060048054806020026020016040519081016040528092919081815260200182805480156106cf57602002820191906000526020600020905b8160009054906101000a900473ffffffffffffffffffffffffffffffffffffffff1673ffffffffffffffffffffffffffffffffffffffff1681526020019060010190808311610685575b5050505050905090565b6106e1610a0d565b6000838383600160009054906101000a900473ffffffffffffffffffffffffffffffffffffffff1660405161071590610b60565b6107229493929190610f3b565b604051809103906000f08015801561073e573d6000803e3d6000fd5b509050600360008573ffffffffffffffffffffffffffffffffffffffff1673ffffffffffffffffffffffffffffffffffffffff168152602001908152602001600020819080600181540180825580915050600190039060005260206000200160009091909190916101000a81548173ffffffffffffffffffffffffffffffffffffffff021916908373ffffffffffffffffffffffffffffffffffffffff1602179055506002819080600181540180825580915050600190039060005260206000200160009091909190916101000a81548173ffffffffffffffffffffffffffffffffffffffff021916908373ffffffffffffffffffffffffffffffffffffffff1602179055506001600360008673ffffffffffffffffffffffffffffffffffffffff1673ffffffffffffffffffffffffffffffffffffffff16815260200190815260200160002080549050036108f2576004849080600181540180825580915050600190039060005260206000200160009091909190916101000a81548173ffffffffffffffffffffffffffffffffffffffff021916908373ffffffffffffffffffffffffffffffffffffffff1602179055505b8373ffffffffffffffffffffffffffffffffffffffff163373ffffffffffffffffffffffffffffffffffffffff167f33e2dd27a82a368d0f01ffd3d8ba9f6705d0176daa88e096b72f00f03faeef9883868660405161095393929190610f80565b60405180910390a350505050565b610969610a0d565b600073ffffffffffffffffffffffffffffffffffffffff168173ffffffffffffffffffffffffffffffffffffffff16036109db5760006040517f1e4fbdf70000000000000000000000000000000000000000000000000000000081526004016109d29190610cc2565b60405180910390fd5b6109e481610a94565b50565b600160009054906101000a900473ffffffffffffffffffffffffffffffffffffffff1681565b610a15610b58565b73ffffffffffffffffffffffffffffffffffffffff16610a336103c2565b73ffffffffffffffffffffffffffffffffffffffff1614610a9257610a56610b58565b6040517f118cdaa7000000000000000000000000000000000000000000000000000000008152600401610a899190610cc2565b60405180910390fd5b565b60008060009054906101000a900473ffffffffffffffffffffffffffffffffffffffff169050816000806101000a81548173ffffffffffffffffffffffffffffffffffffffff021916908373ffffffffffffffffffffffffffffffffffffffff1602179055508173ffffffffffffffffffffffffffffffffffffffff168173ffffffffffffffffffffffffffffffffffffffff167f8be0079c531659141344cd1fd0a4f28419497f9722a3daafe3b4186f6b6457e060405160405180910390a35050565b600033905090565b610c2f80610fb883390190565b6000819050919050565b610b8081610b6d565b82525050565b6000602082019050610b9b6000830184610b77565b92915050565b600081519050919050565b600082825260208201905092915050565b6000819050602082019050919050565b600073ffffffffffffffffffffffffffffffffffffffff82169050919050565b6000610bf882610bcd565b9050919050565b610c0881610bed565b82525050565b6000610c1a8383610bff565b60208301905092915050565b6000602082019050919050565b6000610c3e82610ba1565b610c488185610bac565b9350610c5383610bbd565b8060005b83811015610c84578151610c6b8882610c0e565b9750610c7683610c26565b925050600181019050610c57565b5085935050505092915050565b60006020820190508181036000830152610cab8184610c33565b905092915050565b610cbc81610bed565b82525050565b6000602082019050610cd76000830184610cb3565b92915050565b600080fd5b610ceb81610bed565b8114610cf657600080fd5b50565b600081359050610d0881610ce2565b92915050565b600060208284031215610d2457610d23610cdd565b5b6000610d3284828501610cf9565b91505092915050565b610d4481610b6d565b8114610d4f57600080fd5b50565b600081359050610d6181610d3b565b92915050565b600060208284031215610d7d57610d7c610cdd565b5b6000610d8b84828501610d52565b91505092915050565b6000819050919050565b6000610db9610db4610daf84610bcd565b610d94565b610bcd565b9050919050565b6000610dcb82610d9e565b9050919050565b6000610ddd82610dc0565b9050919050565b610ded81610dd2565b82525050565b6000602082019050610e086000830184610de4565b92915050565b60008060408385031215610e2557610e24610cdd565b5b6000610e3385828601610cf9565b9250506020610e4485828601610d52565b9150509250929050565b600080600060608486031215610e6757610e66610cdd565b5b6000610e7586828701610cf9565b9350506020610e8686828701610d52565b9250506040610e9786828701610d52565b9150509250925092565b6000610eac82610dc0565b9050919050565b610ebc81610ea1565b82525050565b6000602082019050610ed76000830184610eb3565b92915050565b7f4e487b7100000000000000000000000000000000000000000000000000000000600052604160045260246000fd5b7f4e487b7100000000000000000000000000000000000000000000000000000000600052603260045260246000fd5b6000608082019050610f506000830187610cb3565b610f5d6020830186610b77565b610f6a6040830185610b77565b610f776060830184610cb3565b95945050505050565b6000606082019050610f956000830186610cb3565b610fa26020830185610b77565b610faf6040830184610b77565b94935050505056fe608060405234801561001057600080fd5b50604051610c2f380380610c2f83398181016040528101906100329190610172565b836000806101000a81548173ffffffffffffffffffffffffffffffffffffffff021916908373ffffffffffffffffffffffffffffffffffffffff16021790555080600160006101000a81548173ffffffffffffffffffffffffffffffffffffffff021916908373ffffffffffffffffffffffffffffffffffffffff1602179055508260028190555042600381905550816004819055506000600581905550505050506101d9565b600080fd5b600073ffffffffffffffffffffffffffffffffffffffff82169050919050565b6000610109826100de565b9050919050565b610119816100fe565b811461012457600080fd5b50565b60008151905061013681610110565b92915050565b6000819050919050565b61014f8161013c565b811461015a57600080fd5b50565b60008151905061016c81610146565b92915050565b6000806000806080858703121561018c5761018b6100d9565b5b600061019a87828801610127565b94505060206101ab8782880161015d565b93505060406101bc8782880161015d565b92505060606101cd87828801610127565b91505092959194509250565b610a47806101e86000396000f3fe608060405234801561001057600080fd5b50600436106100885760003560e01c8063be9a65551161005b578063be9a655514610105578063c354bd6e14610123578063e834a83414610141578063fc0c546a1461015f57610088565b80630fb5a6b41461008d5780631a39d8ef146100ab57806338af3eed146100c95780634e71d92d146100e7575b600080fd5b61009561017d565b6040516100a2919061057c565b60405180910390f35b6100b3610183565b6040516100c0919061057c565b60405180910390f35b6100d1610189565b6040516100de91906105d8565b60405180910390f35b6100ef6101ad565b6040516100fc919061060e565b60405180910390f35b61010d6104b2565b60405161011a919061057c565b60405180910390f35b61012b6104b8565b604051610138919061057c565b60405180910390f35b6101496104d4565b604051610156919061057c565b60405180910390f35b6101676104da565b6040516101749190610688565b60405180910390f35b60045481565b60025481565b60008054906101000a900473ffffffffffffffffffffffffffffffffffffffff1681565b60003373ffffffffffffffffffffffffffffffffffffffff1660008054906101000a900473ffffffffffffffffffffffffffffffffffffffff1673ffffffffffffffffffffffffffffffffffffffff161461023d576040517f08c379a000000000000000000000000000000000000000000000000000000000815260040161023490610700565b60405180910390fd5b600060055461024a610500565b610254919061074f565b905080600160009054906101000a900473ffffffffffffffffffffffffffffffffffffffff1673ffffffffffffffffffffffffffffffffffffffff166370a08231306040518263ffffffff1660e01b81526004016102b291906105d8565b602060405180830381865afa1580156102cf573d6000803e3d6000fd5b505050506040513d601f19601f820116820180604052508101906102f391906107b4565b1015610334576040517f08c379a000000000000000000000000000000000000000000000000000000000815260040161032b9061082d565b60405180910390fd5b60008111610377576040517f08c379a000000000000000000000000000000000000000000000000000000000815260040161036e90610899565b60405180910390fd5b806005600082825461038991906108b9565b92505081905550600160009054906101000a900473ffffffffffffffffffffffffffffffffffffffff1673ffffffffffffffffffffffffffffffffffffffff1663a9059cbb60008054906101000a900473ffffffffffffffffffffffffffffffffffffffff16836040518363ffffffff1660e01b815260040161040d9291906108ed565b6020604051808303816000875af115801561042c573d6000803e3d6000fd5b505050506040513d601f19601f820116820180604052508101906104509190610942565b507fd8138f8a3f377c5259ca548e70e4c2de94f129f5a11036a15b69513cba2b426a60008054906101000a900473ffffffffffffffffffffffffffffffffffffffff16826040516104a29291906108ed565b60405180910390a1600191505090565b60035481565b60006005546104c5610500565b6104cf919061074f565b905090565b60055481565b600160009054906101000a900473ffffffffffffffffffffffffffffffffffffffff1681565b60006003544210156105155760009050610560565b60045460035461052591906108b9565b4210610535576002549050610560565b60045460025460035442610549919061074f565b610553919061096f565b61055d91906109e0565b90505b90565b6000819050919050565b61057681610563565b82525050565b6000602082019050610591600083018461056d565b92915050565b600073ffffffffffffffffffffffffffffffffffffffff82169050919050565b60006105c282610597565b9050919050565b6105d2816105b7565b82525050565b60006020820190506105ed60008301846105c9565b92915050565b60008115159050919050565b610608816105f3565b82525050565b600060208201905061062360008301846105ff565b92915050565b6000819050919050565b600061064e61064961064484610597565b610629565b610597565b9050919050565b600061066082610633565b9050919050565b600061067282610655565b9050919050565b61068281610667565b82525050565b600060208201905061069d6000830184610679565b92915050565b600082825260208201905092915050565b7f6e6f207065726d697373696f6e00000000000000000000000000000000000000600082015250565b60006106ea600d836106a3565b91506106f5826106b4565b602082019050919050565b60006020820190508181036000830152610719816106dd565b9050919050565b7f4e487b7100000000000000000000000000000000000000000000000000000000600052601160045260246000fd5b600061075a82610563565b915061076583610563565b925082820390508181111561077d5761077c610720565b5b92915050565b600080fd5b61079181610563565b811461079c57600080fd5b50565b6000815190506107ae81610788565b92915050565b6000602082840312156107ca576107c9610783565b5b60006107d88482850161079f565b91505092915050565b7f696e73756666696369656e742062616c616e636520696e20636f6e7472616374600082015250565b60006108176020836106a3565b9150610822826107e1565b602082019050919050565b600060208201905081810360008301526108468161080a565b9050919050565b7f6e6f7468696e6720746f20636c61696d00000000000000000000000000000000600082015250565b60006108836010836106a3565b915061088e8261084d565b602082019050919050565b600060208201905081810360008301526108b281610876565b9050919050565b60006108c482610563565b91506108cf83610563565b92508282019050808211156108e7576108e6610720565b5b92915050565b600060408201905061090260008301856105c9565b61090f602083018461056d565b9392505050565b61091f816105f3565b811461092a57600080fd5b50565b60008151905061093c81610916565b92915050565b60006020828403121561095857610957610783565b5b60006109668482850161092d565b91505092915050565b600061097a82610563565b915061098583610563565b925082820261099381610563565b915082820484148315176109aa576109a9610720565b5b5092915050565b7f4e487b7100000000000000000000000000000000000000000000000000000000600052601260045260246000fd5b60006109eb82610563565b91506109f683610563565b925082610a0657610a056109b1565b5b82820490509291505056fea264697066735822122057d3e72c3d82e3e91e064d3d450ec82b38d35728faa2bc3934adf55a6dcbcebd64736f6c634300081c0033a26469706673582212204c02ec347f3c4c3b45b5262a62add359e90c32b6e6e985fcc719d562bd68a12c64736f6c634300081c0033",
  "devdoc": {
    "errors": {
      "OwnableInvalidOwner(address)": [
        {
          "details": "The owner is not a valid owner account. (eg. `address(0)`)"
        }
      ],
      "OwnableUnauthorizedAccount(address)": [
        {
          "details": "The caller account is not authorized to perform an operation."
        }
      ]
    },
    "kind": "dev",
    "methods": {
      "owner()": {
        "details": "Returns the address of the current owner."
      },
      "renounceOwnership()": {
        "details": "Leaves the contract without owner. It will not be possible to call `onlyOwner` functions. Can only be called by the current owner. NOTE: Renouncing ownership will leave the contract without an owner, thereby disabling any functionality that is only available to the owner."
      },
      "transferOwnership(address)": {
        "details": "Transfers ownership of the contract to a new account (`newOwner`). Can only be called by the current owner."
      }
    },
    "version": 1
  },
  "userdoc": {
    "kind": "user",
    "methods": {},
    "version": 1
  },
  "storageLayout": {
    "storage": [
      {
        "astId": 8,
        "contract": "contracts/VestingFactory.sol:VestingFactory",
        "label": "_owner",
        "offset": 0,
        "slot": "0",
        "type": "t_address"
      },
      {
        "astId": 729,
        "contract": "contracts/VestingFactory.sol:VestingFactory",
        "label": "token",
        "offset": 0,
        "slot": "1",
        "type": "t_contract(IERC20)225"
      },
      {
        "astId": 733,
        "contract": "contracts/VestingFactory.sol:VestingFactory",
        "label": "allVestings",
        "offset": 0,
        "slot": "2",
        "type": "t_array(t_contract(Vesting)719)dyn_storage"
      },
      {
        "astId": 739,
        "contract": "contracts/VestingFactory.sol:VestingFactory",
        "label": "vestingsOf",
        "offset": 0,
        "slot": "3",
        "type": "t_mapping(t_address,t_array(t_contract(Vesting)719)dyn_storage)"
      },
      {
        "astId": 742,
        "contract": "contracts/VestingFactory.sol:VestingFactory",
        "label": "allUsers",
        "offset": 0,
        "slot": "4",
        "type": "t_array(t_address)dyn_storage"
      }
    ],
    "types": {
      "t_address": {
        "encoding": "inplace",
        "label": "address",
        "numberOfBytes": "20"
      },
      "t_array(t_address)dyn_storage": {
        "base": "t_address",
        "encoding": "dynamic_array",
        "label": "address[]",
        "numberOfBytes": "32"
      },
      "t_array(t_contract(Vesting)719)dyn_storage": {
        "base": "t_contract(Vesting)719",
        "encoding": "dynamic_array",
        "label": "contract Vesting[]",
        "numberOfBytes": "32"
      },
      "t_contract(IERC20)225": {
        "encoding": "inplace",
        "label": "contract IERC20",
        "numberOfBytes": "20"
      },
      "t_contract(Vesting)719": {
        "encoding": "inplace",
        "label": "contract Vesting",
        "numberOfBytes": "20"
      },
      "t_mapping(t_address,t_array(t_contract(Vesting)719)dyn_storage)": {
        "encoding": "mapping",
        "key": "t_address",
        "label": "mapping(address => contract Vesting[])",
        "numberOfBytes": "32",
        "value": "t_array(t_contract(Vesting)719)dyn_storage"
      }
    }
  }
}