{
  "address": "0xEE14D6F94354e8B69757357EEF0E41aabe688F79",
  "abi": [
    {
      "inputs": [
        {
          "internalType": "string",
          "name": "_tokenName",
          "type": "string"
        },
        {
          "internalType": "string",
          "name": "_symbolName",
          "type": "string"
        },
        {
          "internalType": "uint8",
          "name": "_decimals",
          "type": "uint8"
        }
      ],
      "stateMutability": "nonpayable",
      "type": "constructor"
    },
    {
      "inputs": [
        {
          "internalType": "uint256",
          "name": "available",
          "type": "uint256"
        },
        {
          "internalType": "uint256",
          "name": "required",
          "type": "uint256"
        }
      ],
      "name": "InsufficientBalance",
      "type": "error"
    },
    {
      "inputs": [],
      "name": "NotOwner",
      "type": "error"
    },
    {
      "anonymous": false,
      "inputs": [
        {
          "indexed": true,
          "internalType": "address",
          "name": "owner",
          "type": "address"
        },
        {
          "indexed": true,
          "internalType": "address",
          "name": "spender",
          "type": "address"
        },
        {
          "indexed": false,
          "internalType": "uint256",
          "name": "value",
          "type": "uint256"
        }
      ],
      "name": "Approval",
      "type": "event"
    },
    {
      "anonymous": false,
      "inputs": [
        {
          "indexed": true,
          "internalType": "address",
          "name": "from",
          "type": "address"
        },
        {
          "indexed": true,
          "internalType": "address",
          "name": "to",
          "type": "address"
        },
        {
          "indexed": false,
          "internalType": "uint256",
          "name": "value",
          "type": "uint256"
        }
      ],
      "name": "Transfer",
      "type": "event"
    },
    {
      "inputs": [
        {
          "internalType": "address",
          "name": "_owner",
          "type": "address"
        },
        {
          "internalType": "address",
          "name": "_spender",
          "type": "address"
        }
      ],
      "name": "allowance",
      "outputs": [
        {
          "internalType": "uint256",
          "name": "",
          "type": "uint256"
        }
      ],
      "stateMutability": "view",
      "type": "function"
    },
    {
      "inputs": [
        {
          "internalType": "address",
          "name": "spender",
          "type": "address"
        },
        {
          "internalType": "uint256",
          "name": "amount",
          "type": "uint256"
        }
      ],
      "name": "approve",
      "outputs": [
        {
          "internalType": "bool",
          "name": "",
          "type": "bool"
        }
      ],
      "stateMutability": "nonpayable",
      "type": "function"
    },
    {
      "inputs": [
        {
          "internalType": "address",
          "name": "input",
          "type": "address"
        }
      ],
      "name": "balanceOf",
      "outputs": [
        {
          "internalType": "uint256",
          "name": "",
          "type": "uint256"
        }
      ],
      "stateMutability": "view",
      "type": "function"
    },
    {
      "inputs": [],
      "name": "decimals",
      "outputs": [
        {
          "internalType": "uint8",
          "name": "",
          "type": "uint8"
        }
      ],
      "stateMutability": "view",
      "type": "function"
    },
    {
      "inputs": [
        {
          "internalType": "address",
          "name": "to",
          "type": "address"
        },
        {
          "internalType": "uint256",
          "name": "amount",
          "type": "uint256"
        }
      ],
      "name": "mint",
      "outputs": [
        {
          "internalType": "bool",
          "name": "",
          "type": "bool"
        }
      ],
      "stateMutability": "nonpayable",
      "type": "function"
    },
    {
      "inputs": [],
      "name": "symbolName",
      "outputs": [
        {
          "internalType": "string",
          "name": "",
          "type": "string"
        }
      ],
      "stateMutability": "view",
      "type": "function"
    },
    {
      "inputs": [],
      "name": "tokenName",
      "outputs": [
        {
          "internalType": "string",
          "name": "",
          "type": "string"
        }
      ],
      "stateMutability": "view",
      "type": "function"
    },
    {
      "inputs": [],
      "name": "totalSupply",
      "outputs": [
        {
          "internalType": "uint256",
          "name": "",
          "type": "uint256"
        }
      ],
      "stateMutability": "view",
      "type": "function"
    },
    {
      "inputs": [
        {
          "internalType": "address",
          "name": "target",
          "type": "address"
        },
        {
          "internalType": "uint256",
          "name": "amount",
          "type": "uint256"
        }
      ],
      "name": "transfer",
      "outputs": [
        {
          "internalType": "bool",
          "name": "",
          "type": "bool"
        }
      ],
      "stateMutability": "nonpayable",
      "type": "function"
    },
    {
      "inputs": [
        {
          "internalType": "address",
          "name": "from",
          "type": "address"
        },
        {
          "internalType": "address",
          "name": "to",
          "type": "address"
        },
        {
          "internalType": "uint256",
          "name": "amount",
          "type": "uint256"
        }
      ],
      "name": "transferFrom",
      "outputs": [
        {
          "internalType": "bool",
          "name": "",
          "type": "bool"
        }
      ],
      "stateMutability": "nonpayable",
      "type": "function"
    }
  ],
  "transactionHash": "0x5b63b372ee0d8f4673a5bc91e5c96ed3ce8d8fc984a87033bb159def163de22c",
  "args": [
    "Token1",
    "T1",
    10
  ],
  "numDeployments": 1,
  "solcInputHash": "11497311eac497223fd3342292824e8b",
  "bytecode": "0x608060405234801561001057600080fd5b5060405161163238038061163283398181016040528101906100329190610264565b82600390816100419190610510565b5081600490816100519190610510565b5080600560006101000a81548160ff021916908360ff16021790555033600260006101000a81548173ffffffffffffffffffffffffffffffffffffffff021916908373ffffffffffffffffffffffffffffffffffffffff1602179055505050506105e2565b6000604051905090565b600080fd5b600080fd5b600080fd5b600080fd5b6000601f19601f8301169050919050565b7f4e487b7100000000000000000000000000000000000000000000000000000000600052604160045260246000fd5b61011d826100d4565b810181811067ffffffffffffffff8211171561013c5761013b6100e5565b5b80604052505050565b600061014f6100b6565b905061015b8282610114565b919050565b600067ffffffffffffffff82111561017b5761017a6100e5565b5b610184826100d4565b9050602081019050919050565b60005b838110156101af578082015181840152602081019050610194565b60008484015250505050565b60006101ce6101c984610160565b610145565b9050828152602081018484840111156101ea576101e96100cf565b5b6101f5848285610191565b509392505050565b600082601f830112610212576102116100ca565b5b81516102228482602086016101bb565b91505092915050565b600060ff82169050919050565b6102418161022b565b811461024c57600080fd5b50565b60008151905061025e81610238565b92915050565b60008060006060848603121561027d5761027c6100c0565b5b600084015167ffffffffffffffff81111561029b5761029a6100c5565b5b6102a7868287016101fd565b935050602084015167ffffffffffffffff8111156102c8576102c76100c5565b5b6102d4868287016101fd565b92505060406102e58682870161024f565b9150509250925092565b600081519050919050565b7f4e487b7100000000000000000000000000000000000000000000000000000000600052602260045260246000fd5b6000600282049050600182168061034157607f821691505b602082108103610354576103536102fa565b5b50919050565b60008190508160005260206000209050919050565b60006020601f8301049050919050565b600082821b905092915050565b6000600883026103bc7fffffffffffffffffffffffffffffffffffffffffffffffffffffffffffffffff8261037f565b6103c6868361037f565b95508019841693508086168417925050509392505050565b6000819050919050565b6000819050919050565b600061040d610408610403846103de565b6103e8565b6103de565b9050919050565b6000819050919050565b610427836103f2565b61043b61043382610414565b84845461038c565b825550505050565b600090565b610450610443565b61045b81848461041e565b505050565b5b8181101561047f57610474600082610448565b600181019050610461565b5050565b601f8211156104c4576104958161035a565b61049e8461036f565b810160208510156104ad578190505b6104c16104b98561036f565b830182610460565b50505b505050565b600082821c905092915050565b60006104e7600019846008026104c9565b1980831691505092915050565b600061050083836104d6565b9150826002028217905092915050565b610519826102ef565b67ffffffffffffffff811115610532576105316100e5565b5b61053c8254610329565b610547828285610483565b600060209050601f83116001811461057a5760008415610568578287015190505b61057285826104f4565b8655506105da565b601f1984166105888661035a565b60005b828110156105b05784890151825560018201915060208501945060208101905061058b565b868310156105cd57848901516105c9601f8916826104d6565b8355505b6001600288020188555050505b505050505050565b611041806105f16000396000f3fe608060405234801561001057600080fd5b506004361061009e5760003560e01c80636c02a931116100665780636c02a9311461016f57806370a082311461018d5780638e3e33a0146101bd578063a9059cbb146101db578063dd62ed3e1461020b5761009e565b8063095ea7b3146100a357806318160ddd146100d357806323b872dd146100f1578063313ce5671461012157806340c10f191461013f575b600080fd5b6100bd60048036038101906100b89190610bca565b61023b565b6040516100ca9190610c25565b60405180910390f35b6100db61032d565b6040516100e89190610c4f565b60405180910390f35b61010b60048036038101906101069190610c6a565b610333565b6040516101189190610c25565b60405180910390f35b610129610622565b6040516101369190610cd9565b60405180910390f35b61015960048036038101906101549190610bca565b610635565b6040516101669190610c25565b60405180910390f35b61017761079c565b6040516101849190610d84565b60405180910390f35b6101a760048036038101906101a29190610da6565b61082a565b6040516101b49190610c4f565b60405180910390f35b6101c5610872565b6040516101d29190610d84565b60405180910390f35b6101f560048036038101906101f09190610bca565b610900565b6040516102029190610c25565b60405180910390f35b61022560048036038101906102209190610dd3565b610aaa565b6040516102329190610c4f565b60405180910390f35b600081600160003373ffffffffffffffffffffffffffffffffffffffff1673ffffffffffffffffffffffffffffffffffffffff16815260200190815260200160002060008573ffffffffffffffffffffffffffffffffffffffff1673ffffffffffffffffffffffffffffffffffffffff168152602001908152602001600020819055508273ffffffffffffffffffffffffffffffffffffffff163373ffffffffffffffffffffffffffffffffffffffff167f8c5be1e5ebec7d5bd14f71427d1e84f3dd0314c0f7b2291e5b200ac8c7c3b9258460405161031b9190610c4f565b60405180910390a36001905092915050565b60065481565b6000816000808673ffffffffffffffffffffffffffffffffffffffff1673ffffffffffffffffffffffffffffffffffffffff1681526020019081526020016000205410156103b6576040517f08c379a00000000000000000000000000000000000000000000000000000000081526004016103ad90610e5f565b60405180910390fd5b81600160008673ffffffffffffffffffffffffffffffffffffffff1673ffffffffffffffffffffffffffffffffffffffff16815260200190815260200160002060003373ffffffffffffffffffffffffffffffffffffffff1673ffffffffffffffffffffffffffffffffffffffff168152602001908152602001600020541015610475576040517f08c379a000000000000000000000000000000000000000000000000000000000815260040161046c90610ecb565b60405180910390fd5b816000808673ffffffffffffffffffffffffffffffffffffffff1673ffffffffffffffffffffffffffffffffffffffff16815260200190815260200160002060008282546104c39190610f1a565b92505081905550816000808573ffffffffffffffffffffffffffffffffffffffff1673ffffffffffffffffffffffffffffffffffffffff16815260200190815260200160002060008282546105189190610f4e565b9250508190555081600160008673ffffffffffffffffffffffffffffffffffffffff1673ffffffffffffffffffffffffffffffffffffffff16815260200190815260200160002060003373ffffffffffffffffffffffffffffffffffffffff1673ffffffffffffffffffffffffffffffffffffffff16815260200190815260200160002060008282546105ab9190610f1a565b925050819055508273ffffffffffffffffffffffffffffffffffffffff168473ffffffffffffffffffffffffffffffffffffffff167fddf252ad1be2c89b69c2b068fc378daa952ba7f163c4a11628f55a4df523b3ef8460405161060f9190610c4f565b60405180910390a3600190509392505050565b600560009054906101000a900460ff1681565b6000600260009054906101000a900473ffffffffffffffffffffffffffffffffffffffff1673ffffffffffffffffffffffffffffffffffffffff163373ffffffffffffffffffffffffffffffffffffffff16146106be576040517f30cd747100000000000000000000000000000000000000000000000000000000815260040160405180910390fd5b816000808573ffffffffffffffffffffffffffffffffffffffff1673ffffffffffffffffffffffffffffffffffffffff168152602001908152602001600020600082825461070c9190610f4e565b9250508190555081600660008282546107259190610f4e565b925050819055508273ffffffffffffffffffffffffffffffffffffffff16600073ffffffffffffffffffffffffffffffffffffffff167fddf252ad1be2c89b69c2b068fc378daa952ba7f163c4a11628f55a4df523b3ef8460405161078a9190610c4f565b60405180910390a36001905092915050565b600380546107a990610fb1565b80601f01602080910402602001604051908101604052809291908181526020018280546107d590610fb1565b80156108225780601f106107f757610100808354040283529160200191610822565b820191906000526020600020905b81548152906001019060200180831161080557829003601f168201915b505050505081565b60008060008373ffffffffffffffffffffffffffffffffffffffff1673ffffffffffffffffffffffffffffffffffffffff168152602001908152602001600020549050919050565b6004805461087f90610fb1565b80601f01602080910402602001604051908101604052809291908181526020018280546108ab90610fb1565b80156108f85780601f106108cd576101008083540402835291602001916108f8565b820191906000526020600020905b8154815290600101906020018083116108db57829003601f168201915b505050505081565b6000338260008060008473ffffffffffffffffffffffffffffffffffffffff1673ffffffffffffffffffffffffffffffffffffffff1681526020019081526020016000205490508181101561098e5780826040517fcf479181000000000000000000000000000000000000000000000000000000008152600401610985929190610fe2565b60405180910390fd5b846000803373ffffffffffffffffffffffffffffffffffffffff1673ffffffffffffffffffffffffffffffffffffffff16815260200190815260200160002060008282546109dc9190610f1a565b92505081905550846000808873ffffffffffffffffffffffffffffffffffffffff1673ffffffffffffffffffffffffffffffffffffffff1681526020019081526020016000206000828254610a319190610f4e565b925050819055508573ffffffffffffffffffffffffffffffffffffffff163373ffffffffffffffffffffffffffffffffffffffff167fddf252ad1be2c89b69c2b068fc378daa952ba7f163c4a11628f55a4df523b3ef87604051610a959190610c4f565b60405180910390a36001935050505092915050565b6000600160008473ffffffffffffffffffffffffffffffffffffffff1673ffffffffffffffffffffffffffffffffffffffff16815260200190815260200160002060008373ffffffffffffffffffffffffffffffffffffffff1673ffffffffffffffffffffffffffffffffffffffff16815260200190815260200160002054905092915050565b600080fd5b600073ffffffffffffffffffffffffffffffffffffffff82169050919050565b6000610b6182610b36565b9050919050565b610b7181610b56565b8114610b7c57600080fd5b50565b600081359050610b8e81610b68565b92915050565b6000819050919050565b610ba781610b94565b8114610bb257600080fd5b50565b600081359050610bc481610b9e565b92915050565b60008060408385031215610be157610be0610b31565b5b6000610bef85828601610b7f565b9250506020610c0085828601610bb5565b9150509250929050565b60008115159050919050565b610c1f81610c0a565b82525050565b6000602082019050610c3a6000830184610c16565b92915050565b610c4981610b94565b82525050565b6000602082019050610c646000830184610c40565b92915050565b600080600060608486031215610c8357610c82610b31565b5b6000610c9186828701610b7f565b9350506020610ca286828701610b7f565b9250506040610cb386828701610bb5565b9150509250925092565b600060ff82169050919050565b610cd381610cbd565b82525050565b6000602082019050610cee6000830184610cca565b92915050565b600081519050919050565b600082825260208201905092915050565b60005b83811015610d2e578082015181840152602081019050610d13565b60008484015250505050565b6000601f19601f8301169050919050565b6000610d5682610cf4565b610d608185610cff565b9350610d70818560208601610d10565b610d7981610d3a565b840191505092915050565b60006020820190508181036000830152610d9e8184610d4b565b905092915050565b600060208284031215610dbc57610dbb610b31565b5b6000610dca84828501610b7f565b91505092915050565b60008060408385031215610dea57610de9610b31565b5b6000610df885828601610b7f565b9250506020610e0985828601610b7f565b9150509250929050565b7f496e73756666696369656e742062616c616e6365000000000000000000000000600082015250565b6000610e49601483610cff565b9150610e5482610e13565b602082019050919050565b60006020820190508181036000830152610e7881610e3c565b9050919050565b7f4e6f7420616c6c6f776564000000000000000000000000000000000000000000600082015250565b6000610eb5600b83610cff565b9150610ec082610e7f565b602082019050919050565b60006020820190508181036000830152610ee481610ea8565b9050919050565b7f4e487b7100000000000000000000000000000000000000000000000000000000600052601160045260246000fd5b6000610f2582610b94565b9150610f3083610b94565b9250828203905081811115610f4857610f47610eeb565b5b92915050565b6000610f5982610b94565b9150610f6483610b94565b9250828201905080821115610f7c57610f7b610eeb565b5b92915050565b7f4e487b7100000000000000000000000000000000000000000000000000000000600052602260045260246000fd5b60006002820490506001821680610fc957607f821691505b602082108103610fdc57610fdb610f82565b5b50919050565b6000604082019050610ff76000830185610c40565b6110046020830184610c40565b939250505056fea2646970667358221220c58d8c4430330847e4bc8e712f03199181233509a06cb124253b7dd3cf1d622464736f6c634300081c0033",
  "devdoc": {
    "kind": "dev",
    "methods": {},
    "version": 1
  },
  "userdoc": {
    "kind": "user",
    "methods": {},
    "version": 1
  },
  "storageLayout": {
    "storage": [
      {
        "astId": 261,
        "contract": "contracts/MyToken.sol:MyToken",
        "label": "balances",
        "offset": 0,
        "slot": "0",
        "type": "t_mapping(t_address,t_uint256)"
      },
      {
        "astId": 267,
        "contract": "contracts/MyToken.sol:MyToken",
        "label": "_allowance",
        "offset": 0,
        "slot": "1",
        "type": "t_mapping(t_address,t_mapping(t_address,t_uint256))"
      },
      {
        "astId": 269,
        "contract": "contracts/MyToken.sol:MyToken",
        "label": "owner",
        "offset": 0,
        "slot": "2",
        "type": "t_address"
      },
      {
        "astId": 271,
        "contract": "contracts/MyToken.sol:MyToken",
        "label": "tokenName",
        "offset": 0,
        "slot": "3",
        "type": "t_string_storage"
      },
      {
        "astId": 273,
        "contract": "contracts/MyToken.sol:MyToken",
        "label": "symbolName",
        "offset": 0,
        "slot": "4",
        "type": "t_string_storage"
      },
      {
        "astId": 275,
        "contract": "contracts/MyToken.sol:MyToken",
        "label": "decimals",
        "offset": 0,
        "slot": "5",
        "type": "t_uint8"
      },
      {
        "astId": 277,
        "contract": "contracts/MyToken.sol:MyToken",
        "label": "totalSupply",
        "offset": 0,
        "slot": "6",
        "type": "t_uint256"
      }
    ],
    "types": {
      "t_address": {
        "encoding": "inplace",
        "label": "address",
        "numberOfBytes": "20"
      },
      "t_mapping(t_address,t_mapping(t_address,t_uint256))": {
        "encoding": "mapping",
        "key": "t_address",
        "label": "mapping(address => mapping(address => uint256))",
        "numberOfBytes": "32",
        "value": "t_mapping(t_address,t_uint256)"
      },
      "t_mapping(t_address,t_uint256)": {
        "encoding": "mapping",
        "key": "t_address",
        "label": "mapping(address => uint256)",
        "numberOfBytes": "32",
        "value": "t_uint256"
      },
      "t_string_storage": {
        "encoding": "bytes",
        "label": "string",
        "numberOfBytes": "32"
      },
      "t_uint256": {
        "encoding": "inplace",
        "label": "uint256",
        "numberOfBytes": "32"
      },
      "t_uint8": {
        "encoding": "inplace",
        "label": "uint8",
        "numberOfBytes": "1"
      }
    }
  }
}